S017000046575F484F524C4F4A3230303332342E7372656318
S11300000C9434000C9446000C9446000C94460066
S11300100C9446000C9446000C9446000C94460044
S11300200C9446000C9456000C9446000C94460024
S11300300C9446000C9446000C9446000C94460024
S11300400C9446000C9446000C9446000C94460014
S11300500C9446000C9446000C9446000C94460004
S11300600C9446000C94460011241FBECFEFD8E038
S1130070DEBFCDBF21E0A0E0B1E001C01D92A730FA
S1130080B207E1F70E9489000C94BD000C940000B3
S11300901092B00085E08093B10081E080937000FD
S11300A0E6EBF0E080818062808308951F920F92D6
S11300B00FB60F9211242F933F934F935F936F9337
S11300C07F938F939F93AF93BF93EF93FF9380E0BE
S11300D091E00E948F0095B184E0982795B9E7EAF2
S11300E0F1E63197F1F700C0000095B1892785B991
S11300F0FF91EF91BF91AF919F918F917F916F91FC
S11301005F914F913F912F910F900FBE0F901F90D1
S113011018950E944800229A2A9A7894FFCF8091D9
S11301200501909106018B33910509F5E1E0F1E0B9
S113013015821482828193818B33910591F4138209
S11301401282808191818731910529F410920201F4
S11301501092010108950196909302018093010188
S113016008950196909304018093030108950196E4
S111017090930601809305010895F894FFCF43
S9030000FC
