S017000046575F484F524C4F4A3230303332342E7372656318
S11300000C9435000C945D000C945D000C945D0020
S11300100C945D000C945D000C945D000C945D00E8
S11300200C945D000C9424010C945D000C945D0010
S11300300C945D000C945D000C945D000C945D00C8
S11300400C945D000C945D000C945D000C945D00B8
S11300500C945D000C945D000C945D000C945D00A8
S11300600C945D000C945D00150111241FBECFEFAC
S1130070D8E0DEBFCDBF11E0A0E0B1E0E2E9F2E0FC
S113008002C005900D92A430B107D9F721E0A4E095
S1130090B1E001C01D92AA30B207E1F710E0C5E358
S11300A0D0E004C02197FE010E944101C433D1076E
S11300B0C9F70E942E010C9447010C94000081E0C2
S11300C090E090930701809306019093030180933D
S11300D0020182E090E0909301018093000120915D
S11300E00201309103018091000190910101822B62
S11300F0932B90930501809304010895809100014E
S1130100909101018115984081F4809106019091AC
S1130110070180FF0AC08091020190910301880FBA
S1130120991F9093030180930201809100019091A3
S113013001018115984089F480910601909107018D
S113014080FF0BC08091020190910301880F991FD9
S113015090930101809300010DC08091060190915C
S1130160070180FF07C08091060190910701029763
S113017008F050C0209102013091030180910001E8
S113018090910101822B932B90930501809304019C
S113019080910401909105018AB9809104019091A4
S11301A00501892F880F880F84B9809106019091E9
S11301B0070180FF0EC080910201909103018BB969
S11301C08091020190910301892F880F880F85B9CE
S11301D00DC080910001909101018BB980910001C3
S11301E090910101892F880F880F85B980910601AC
S11301F0909107018937910518F00E945F000895D6
S113020080910601909107010196909307018093D4
S1130210060108958091000190910101880F991FB2
S11302209093010180930001A5CF209102013091A8
S113023003018091000190910101822B932B9093F3
S113024005018093040108951F920F920FB60F9237
S113025011240F900FBE0F901F9018953D9A80E0C7
S113026098E090930901809308010E947E002FE991
S113027086E891E0215080409040E1F700C0000002
S1130280F4CFEE0FFF1F0590F491E02D0994F8943C
S1050290FFCF9A
S10702920200010061
S9030000FC
