S017000046575F484F524C4F4A3230303332342E7372656318
S11300000C9435000C945D000C945D000C945D0020
S11300100C945D000C945D000C945D000C945D00E8
S11300200C945D000C9423010C945D000C945D0011
S11300300C945D000C945D000C945D000C945D00C8
S11300400C945D000C945D000C945D000C945D00B8
S11300500C945D000C945D000C945D000C945D00A8
S11300600C945D000C945D00140111241FBECFEFAD
S1130070D8E0DEBFCDBF11E0A0E0B1E0E0E9F2E0FE
S113008002C005900D92A430B107D9F721E0A4E095
S1130090B1E001C01D92AA30B207E1F710E0C5E358
S11300A0D0E004C02197FE010E944001C433D1076F
S11300B0C9F70E942D010C9446010C940000109283
S11300C007011092060181E090E090930301809370
S11300D0020182E090E0909301018093000120915D
S11300E00201309103018091000190910101822B62
S11300F0932B909305018093040108958091060148
S1130100909107018837910519F40E945F0009C096
S113011080910601909107010196909307018093C5
S1130120060180910001909101018115984081F4AC
S1130130809106019091070180FF0AC0809102011D
S113014090910301880F991F9093030180930201FA
S113015080910001909101018115984089F480916A
S113016006019091070180FF0BC0809102019091DC
S11301700301880F991F90930101809300010CC023
S1130180809106019091070180FF06C080910601CD
S1130190909107010297E8F5209102013091030143
S11301A08091000190910101822B932B9093050182
S11301B08093040180910401909105018AB9809192
S11301C0040190910501892F880F880F84B98091CB
S11301D006019091070180FF0EC080910201909169
S11301E003018BB98091020190910301892F880F3B
S11301F0880F85B9089580910001909101018BB910
S11302008091000190910101892F880F880F85B991
S113021008958091000190910101880F991F909396
S1130220010180930001B8CF2091020130910301B4
S11302308091000190910101822B932B90930501F1
S11302408093040108951F920F920FB60F92112408
S11302500F900FBE0F901F9018953D9A80E098E084
S113026090930901809308010E947E002FE986E89B
S113027091E0215080409040E1F700C00000F4CFAD
S1130280EE0FFF1F0590F491E02D0994F894FFCF31
S10702900200010063
S9030000FC
